:020000020000FC
:0200000020C01E
:1000400068C005E005BD01E000936E0078940027CC
:1000500006BD08E40AB90EEF07B90E9448000E94E5
:100060003E000E9452000E945900E0917800F091F9
:1000700079000E946C000E946500EBCF27EE209370
:100080007A0010E410937C0010E010937B00089538
:1000900017E61093C40018E11093C1001EE01093FE
:1000A000C200089510E410937A00122B10937A0086
:1000B000089510917A0014FF0C94590000E11091FA
:1000C0007A00102B10937A0008951091C00015FF4C
:1000D000FCCFA093C600089552E040E0E417F50776
:1000E00050F05E9A00000E9485005E9800000E9419
:1000F0008500A8E408955B9A00000E9485005B9843
:1001000000000E948500ACE4089583958E31F1F7DC
:0C011000089583958D3309F48827189515
:00000001FF
